:0200000007fff8
:020001000802f3
:020002000805ef
:020003000808eb
:02000400080ce6
:02000500080fe2
:020006000812de
:020007000815da
:020008000818d6
:02000900081bd2
:02000a00081ece
:02000b000822c9
:02000c000825c5
:02000d000828c1
:02000e00082bbd
:02000f00082eb9
:020010000831b5
:020011000834b1
:020012000838ac
:02001300083ba8
:02001400083ea4
:020015000841a0
:0200160008449c
:02001700084798
:02001800084a94
:02001900084e8f
:02001a0008518b
:02001b00085487
:02001c00085783
:02001d00085a7f
:02001e00085d7b
:02001f00086077
:02002000086373
:0200210008676e
:02002200086a6a
:02002300086d66
:02002400087062
:0200250008735e
:0200260008765a
:02002700087956
:02002800087d51
:0200290008804d
:02002a00088349
:02002b00088645
:02002c00088941
:02002d00088c3d
:02002e00088f39
:02002f00089334
:02003000089630
:0200310008992c
:02003200089c28
:02003300089f24
:0200340008a220
:0200350008a51c
:0200360008a818
:0200370008ac13
:0200380008af0f
:0200390008b20b
:02003a0008b507
:02003b0008b803
:02003c0008bbff
:02003d0008befb
:02003e0008c1f7
:02003f0008c5f2
:0200400008c8ee
:0200410008cbea
:0200420008cee6
:0200430008d1e2
:0200440008d4de
:0200450008d7da
:0200460008dad6
:0200470008ded1
:0200480008e1cd
:0200490008e4c9
:02004a0008e7c5
:02004b0008eac1
:02004c0008edbd
:02004d0008f0b9
:02004e0008f3b5
:02004f0008f7b0
:0200500008faac
:0200510008fda8
:020052000900a3
:0200530009039f
:0200540009069b
:02005500090997
:02005600090c93
:0200570009108e
:0200580009138a
:02005900091686
:02005a00091982
:02005b00091c7e
:02005c00091f7a
:02005d00092276
:02005e00092572
:02005f0009286e
:02006000092c69
:02006100092f65
:02006200093261
:0200630009355d
:02006400093859
:02006500093b55
:02006600093e51
:0200670009414d
:02006800094449
:02006900094745
:02006a00094b40
:02006b00094e3c
:02006c00095138
:02006d00095434
:02006e00095730
:02006f00095a2c
:02007000095d28
:02007100096024
:02007200096320
:0200730009661c
:02007400096a17
:02007500096d13
:0200760009700f
:0200770009730b
:02007800097607
:02007900097903
:02007a00097cff
:02007b00097ffb
:02007c000982f7
:02007d000985f3
:02007e000988ef
:02007f00098beb
:02008000098fe6
:020081000992e2
:020082000995de
:020083000998da
:02008400099bd6
:02008500099ed2
:0200860009a1ce
:0200870009a4ca
:0200880009a7c6
:0200890009aac2
:02008a0009adbe
:02008b0009b0ba
:02008c0009b3b6
:02008d0009b7b1
:02008e0009baad
:02008f0009bda9
:0200900009c0a5
:0200910009c3a1
:0200920009c69d
:0200930009c999
:0200940009cc95
:0200950009cf91
:0200960009d28d
:0200970009d589
:0200980009d885
:0200990009db81
:02009a0009de7d
:02009b0009e179
:02009c0009e475
:02009d0009e771
:02009e0009eb6c
:02009f0009ee68
:0200a00009f164
:0200a10009f460
:0200a20009f75c
:0200a30009fa58
:0200a40009fd54
:0200a5000a004f
:0200a6000a034b
:0200a7000a0647
:0200a8000a0943
:0200a9000a0c3f
:0200aa000a0f3b
:0200ab000a1237
:0200ac000a1533
:0200ad000a182f
:0200ae000a1b2b
:0200af000a1e27
:0200b0000a2123
:0200b1000a241f
:0200b2000a271b
:0200b3000a2a17
:0200b4000a2d13
:0200b5000a300f
:0200b6000a330b
:0200b7000a3607
:0200b8000a3903
:0200b9000a3cff
:0200ba000a3ffb
:0200bb000a42f7
:0200bc000a45f3
:0200bd000a48ef
:0200be000a4beb
:0200bf000a4ee7
:0200c0000a51e3
:0200c1000a55de
:0200c2000a58da
:0200c3000a5bd6
:0200c4000a5ed2
:0200c5000a61ce
:0200c6000a64ca
:0200c7000a67c6
:0200c8000a6ac2
:0200c9000a6cbf
:0200ca000a6fbb
:0200cb000a72b7
:0200cc000a75b3
:0200cd000a78af
:0200ce000a7bab
:0200cf000a7ea7
:0200d0000a81a3
:0200d1000a849f
:0200d2000a879b
:0200d3000a8a97
:0200d4000a8d93
:0200d5000a908f
:0200d6000a938b
:0200d7000a9687
:0200d8000a9983
:0200d9000a9c7f
:0200da000a9f7b
:0200db000aa277
:0200dc000aa573
:0200dd000aa86f
:0200de000aab6b
:0200df000aae67
:0200e0000ab163
:0200e1000ab45f
:0200e2000ab75b
:0200e3000aba57
:0200e4000abd53
:0200e5000ac04f
:0200e6000ac34b
:0200e7000ac647
:0200e8000ac943
:0200e9000acb40
:0200ea000ace3c
:0200eb000ad138
:0200ec000ad434
:0200ed000ad730
:0200ee000ada2c
:0200ef000add28
:0200f0000ae024
:0200f1000ae320
:0200f2000ae61c
:0200f3000ae918
:0200f4000aec14
:0200f5000aef10
:0200f6000af20c
:0200f7000af508
:0200f8000af705
:0200f9000afa01
:0200fa000afdfd
:0200fb000b00f8
:0200fc000b03f4
:0200fd000b06f0
:0200fe000b09ec
:0200ff000b0ce8
:020100000b0fe3
:020101000b12df
:020102000b15db
:020103000b17d8
:020104000b1ad4
:020105000b1dd0
:020106000b20cc
:020107000b23c8
:020108000b26c4
:020109000b29c0
:02010a000b2cbc
:02010b000b2fb8
:02010c000b31b5
:02010d000b34b1
:02010e000b37ad
:02010f000b3aa9
:020110000b3da5
:020111000b40a1
:020112000b439d
:020113000b4699
:020114000b4896
:020115000b4b92
:020116000b4e8e
:020117000b518a
:020118000b5486
:020119000b5782
:02011a000b5a7e
:02011b000b5c7b
:02011c000b5f77
:02011d000b6273
:02011e000b656f
:02011f000b686b
:020120000b6b67
:020121000b6d64
:020122000b7060
:020123000b735c
:020124000b7658
:020125000b7954
:020126000b7c50
:020127000b7e4d
:020128000b8149
:020129000b8445
:02012a000b8741
:02012b000b8a3d
:02012c000b8d39
:02012d000b8f36
:02012e000b9232
:02012f000b952e
:020130000b982a
:020131000b9b26
:020132000b9d23
:020133000ba01f
:020134000ba31b
:020135000ba617
:020136000ba913
:020137000bab10
:020138000bae0c
:020139000bb108
:02013a000bb404
:02013b000bb700
:02013c000bb9fd
:02013d000bbcf9
:02013e000bbff5
:02013f000bc2f1
:020140000bc4ee
:020141000bc7ea
:020142000bcae6
:020143000bcde2
:020144000bcfdf
:020145000bd2db
:020146000bd5d7
:020147000bd8d3
:020148000bdad0
:020149000bddcc
:02014a000be0c8
:02014b000be3c4
:02014c000be5c1
:02014d000be8bd
:02014e000bebb9
:02014f000beeb5
:020150000bf0b2
:020151000bf3ae
:020152000bf6aa
:020153000bf9a6
:020154000bfba3
:020155000bfe9f
:020156000c019a
:020157000c0496
:020158000c0693
:020159000c098f
:02015a000c0c8b
:02015b000c0e88
:02015c000c1184
:02015d000c1480
:02015e000c167d
:02015f000c1979
:020160000c1c75
:020161000c1f71
:020162000c216e
:020163000c246a
:020164000c2766
:020165000c2963
:020166000c2c5f
:020167000c2f5b
:020168000c3158
:020169000c3454
:02016a000c3750
:02016b000c394d
:02016c000c3c49
:02016d000c3f45
:02016e000c4142
:02016f000c443e
:020170000c473a
:020171000c4937
:020172000c4c33
:020173000c4f2f
:020174000c512c
:020175000c5428
:020176000c5724
:020177000c5921
:020178000c5c1d
:020179000c5e1a
:02017a000c6116
:02017b000c6412
:02017c000c660f
:02017d000c690b
:02017e000c6c07
:02017f000c6e04
:020180000c7100
:020181000c73fd
:020182000c76f9
:020183000c79f5
:020184000c7bf2
:020185000c7eee
:020186000c80eb
:020187000c83e7
:020188000c86e3
:020189000c88e0
:02018a000c8bdc
:02018b000c8dd9
:02018c000c90d5
:02018d000c93d1
:02018e000c95ce
:02018f000c98ca
:020190000c9ac7
:020191000c9dc3
:020192000c9fc0
:020193000ca2bc
:020194000ca4b9
:020195000ca7b5
:020196000caab1
:020197000cacae
:020198000cafaa
:020199000cb1a7
:02019a000cb4a3
:02019b000cb6a0
:02019c000cb99c
:02019d000cbb99
:02019e000cbe95
:02019f000cc092
:0201a0000cc38e
:0201a1000cc58b
:0201a2000cc887
:0201a3000ccb83
:0201a4000ccd80
:0201a5000cd07c
:0201a6000cd279
:0201a7000cd575
:0201a8000cd772
:0201a9000cda6e
:0201aa000cdc6b
:0201ab000cdf67
:0201ac000ce164
:0201ad000ce460
:0201ae000ce65d
:0201af000ce85a
:0201b0000ceb56
:0201b1000ced53
:0201b2000cf04f
:0201b3000cf24c
:0201b4000cf548
:0201b5000cf745
:0201b6000cfa41
:0201b7000cfc3e
:0201b8000cff3a
:0201b9000d0136
:0201ba000d0432
:0201bb000d062f
:0201bc000d082c
:0201bd000d0b28
:0201be000d0d25
:0201bf000d1021
:0201c0000d121e
:0201c1000d151a
:0201c2000d1717
:0201c3000d1914
:0201c4000d1c10
:0201c5000d1e0d
:0201c6000d2109
:0201c7000d2306
:0201c8000d2602
:0201c9000d28ff
:0201ca000d2afc
:0201cb000d2df8
:0201cc000d2ff5
:0201cd000d31f2
:0201ce000d34ee
:0201cf000d36eb
:0201d0000d39e7
:0201d1000d3be4
:0201d2000d3de1
:0201d3000d40dd
:0201d4000d42da
:0201d5000d44d7
:0201d6000d47d3
:0201d7000d49d0
:0201d8000d4ccc
:0201d9000d4ec9
:0201da000d50c6
:0201db000d53c2
:0201dc000d55bf
:0201dd000d57bc
:0201de000d5ab8
:0201df000d5cb5
:0201e0000d5eb2
:0201e1000d61ae
:0201e2000d63ab
:0201e3000d65a8
:0201e4000d68a4
:0201e5000d6aa1
:0201e6000d6c9e
:0201e7000d6f9a
:0201e8000d7197
:0201e9000d7394
:0201ea000d7591
:0201eb000d788d
:0201ec000d7a8a
:0201ed000d7c87
:0201ee000d7f83
:0201ef000d8180
:0201f0000d837d
:0201f1000d857a
:0201f2000d8876
:0201f3000d8a73
:0201f4000d8c70
:0201f5000d8e6d
:0201f6000d9169
:0201f7000d9366
:0201f8000d9563
:0201f9000d9760
:0201fa000d9a5c
:0201fb000d9c59
:0201fc000d9e56
:0201fd000da053
:0201fe000da34f
:0201ff000da54c
:020200000da748
:020201000da945
:020202000dac41
:020203000dae3e
:020204000db03b
:020205000db238
:020206000db435
:020207000db731
:020208000db92e
:020209000dbb2b
:02020a000dbd28
:02020b000dbf25
:02020c000dc122
:02020d000dc41e
:02020e000dc61b
:02020f000dc818
:020210000dca15
:020211000dcc12
:020212000dce0f
:020213000dd10b
:020214000dd308
:020215000dd505
:020216000dd702
:020217000dd9ff
:020218000ddbfc
:020219000ddef8
:02021a000de0f5
:02021b000de2f2
:02021c000de4ef
:02021d000de6ec
:02021e000de8e9
:02021f000deae6
:020220000dece3
:020221000deee0
:020222000df1dc
:020223000df3d9
:020224000df5d6
:020225000df7d3
:020226000df9d0
:020227000dfbcd
:020228000dfdca
:020229000dffc7
:02022a000e01c3
:02022b000e03c0
:02022c000e05bd
:02022d000e07ba
:02022e000e0ab6
:02022f000e0cb3
:020230000e0eb0
:020231000e10ad
:020232000e12aa
:020233000e14a7
:020234000e16a4
:020235000e18a1
:020236000e1a9e
:020237000e1c9b
:020238000e1e98
:020239000e2095
:02023a000e2292
:02023b000e248f
:02023c000e268c
:02023d000e2889
:02023e000e2a86
:02023f000e2c83
:020240000e2e80
:020241000e307d
:020242000e327a
:020243000e3477
:020244000e3674
:020245000e3871
:020246000e3a6e
:020247000e3c6b
:020248000e3e68
:020249000e4065
:02024a000e4262
:02024b000e445f
:02024c000e465c
:02024d000e4859
:02024e000e4a56
:02024f000e4b54
:020250000e4d51
:020251000e4f4e
:020252000e514b
:020253000e5348
:020254000e5545
:020255000e5742
:020256000e593f
:020257000e5b3c
:020258000e5d39
:020259000e5f36
:02025a000e6133
:02025b000e6231
:02025c000e642e
:02025d000e662b
:02025e000e6828
:02025f000e6a25
:020260000e6c22
:020261000e6e1f
:020262000e701c
:020263000e711a
:020264000e7317
:020265000e7514
:020266000e7711
:020267000e790e
:020268000e7b0b
:020269000e7d08
:02026a000e7e06
:02026b000e8003
:02026c000e8200
:02026d000e84fd
:02026e000e86fa
:02026f000e87f8
:020270000e89f5
:020271000e8bf2
:020272000e8def
:020273000e8fec
:020274000e90ea
:020275000e92e7
:020276000e94e4
:020277000e96e1
:020278000e98de
:020279000e99dc
:02027a000e9bd9
:02027b000e9dd6
:02027c000e9fd3
:02027d000ea0d1
:02027e000ea2ce
:02027f000ea4cb
:020280000ea6c8
:020281000ea7c6
:020282000ea9c3
:020283000eabc0
:020284000eadbd
:020285000eaebb
:020286000eb0b8
:020287000eb2b5
:020288000eb4b2
:020289000eb5b0
:02028a000eb7ad
:02028b000eb9aa
:02028c000ebaa8
:02028d000ebca5
:02028e000ebea2
:02028f000ebfa0
:020290000ec19d
:020291000ec39a
:020292000ec498
:020293000ec695
:020294000ec892
:020295000ec990
:020296000ecb8d
:020297000ecd8a
:020298000ece88
:020299000ed085
:02029a000ed282
:02029b000ed380
:02029c000ed57d
:02029d000ed77a
:02029e000ed878
:02029f000eda75
:0202a0000edb73
:0202a1000edd70
:0202a2000edf6d
:0202a3000ee06b
:0202a4000ee268
:0202a5000ee366
:0202a6000ee563
:0202a7000ee760
:0202a8000ee85e
:0202a9000eea5b
:0202aa000eeb59
:0202ab000eed56
:0202ac000eef53
:0202ad000ef051
:0202ae000ef24e
:0202af000ef34c
:0202b0000ef549
:0202b1000ef647
:0202b2000ef844
:0202b3000ef942
:0202b4000efb3f
:0202b5000efc3d
:0202b6000efe3a
:0202b7000eff38
:0202b8000f0134
:0202b9000f0331
:0202ba000f042f
:0202bb000f062c
:0202bc000f072a
:0202bd000f0927
:0202be000f0a25
:0202bf000f0c22
:0202c0000f0d20
:0202c1000f0e1e
:0202c2000f101b
:0202c3000f1119
:0202c4000f1316
:0202c5000f1414
:0202c6000f1611
:0202c7000f170f
:0202c8000f190c
:0202c9000f1a0a
:0202ca000f1c07
:0202cb000f1d05
:0202cc000f1e03
:0202cd000f2000
:0202ce000f21fe
:0202cf000f23fb
:0202d0000f24f9
:0202d1000f26f6
:0202d2000f27f4
:0202d3000f28f2
:0202d4000f2aef
:0202d5000f2bed
:0202d6000f2dea
:0202d7000f2ee8
:0202d8000f2fe6
:0202d9000f31e3
:0202da000f32e1
:0202db000f33df
:0202dc000f35dc
:0202dd000f36da
:0202de000f37d8
:0202df000f39d5
:0202e0000f3ad3
:0202e1000f3bd1
:0202e2000f3dce
:0202e3000f3ecc
:0202e4000f3fca
:0202e5000f41c7
:0202e6000f42c5
:0202e7000f43c3
:0202e8000f45c0
:0202e9000f46be
:0202ea000f47bc
:0202eb000f49b9
:0202ec000f4ab7
:0202ed000f4bb5
:0202ee000f4db2
:0202ef000f4eb0
:0202f0000f4fae
:0202f1000f50ac
:0202f2000f52a9
:0202f3000f53a7
:0202f4000f54a5
:0202f5000f55a3
:0202f6000f57a0
:0202f7000f589e
:0202f8000f599c
:0202f9000f5a9a
:0202fa000f5c97
:0202fb000f5d95
:0202fc000f5e93
:0202fd000f5f91
:0202fe000f608f
:0202ff000f628c
:020300000f6389
:020301000f6487
:020302000f6585
:020303000f6683
:020304000f6880
:020305000f697e
:020306000f6a7c
:020307000f6b7a
:020308000f6c78
:020309000f6e75
:02030a000f6f73
:02030b000f7071
:02030c000f716f
:02030d000f726d
:02030e000f736b
:02030f000f7469
:020310000f7666
:020311000f7764
:020312000f7862
:020313000f7960
:020314000f7a5e
:020315000f7b5c
:020316000f7c5a
:020317000f7d58
:020318000f7e56
:020319000f8053
:02031a000f8151
:02031b000f824f
:02031c000f834d
:02031d000f844b
:02031e000f8549
:02031f000f8647
:020320000f8745
:020321000f8843
:020322000f8941
:020323000f8a3f
:020324000f8b3d
:020325000f8c3b
:020326000f8d39
:020327000f8e37
:020328000f8f35
:020329000f9033
:02032a000f9131
:02032b000f922f
:02032c000f932d
:02032d000f942b
:02032e000f9529
:02032f000f9627
:020330000f9725
:020331000f9823
:020332000f9921
:020333000f9a1f
:020334000f9b1d
:020335000f9c1b
:020336000f9d19
:020337000f9e17
:020338000f9f15
:020339000fa013
:02033a000fa111
:02033b000fa20f
:02033c000fa30d
:02033d000fa40b
:02033e000fa509
:02033f000fa607
:020340000fa705
:020341000fa704
:020342000fa802
:020343000fa900
:020344000faafe
:020345000fabfc
:020346000facfa
:020347000fadf8
:020348000faef6
:020349000faff4
:02034a000faff3
:02034b000fb0f1
:02034c000fb1ef
:02034d000fb2ed
:02034e000fb3eb
:02034f000fb4e9
:020350000fb5e7
:020351000fb5e6
:020352000fb6e4
:020353000fb7e2
:020354000fb8e0
:020355000fb9de
:020356000fb9dd
:020357000fbadb
:020358000fbbd9
:020359000fbcd7
:02035a000fbdd5
:02035b000fbdd4
:02035c000fbed2
:02035d000fbfd0
:02035e000fc0ce
:02035f000fc1cc
:020360000fc1cb
:020361000fc2c9
:020362000fc3c7
:020363000fc4c5
:020364000fc4c4
:020365000fc5c2
:020366000fc6c0
:020367000fc7be
:020368000fc7bd
:020369000fc8bb
:02036a000fc9b9
:02036b000fc9b8
:02036c000fcab6
:02036d000fcbb4
:02036e000fccb2
:02036f000fccb1
:020370000fcdaf
:020371000fcead
:020372000fceac
:020373000fcfaa
:020374000fd0a8
:020375000fd0a7
:020376000fd1a5
:020377000fd2a3
:020378000fd2a2
:020379000fd3a0
:02037a000fd49e
:02037b000fd49d
:02037c000fd59b
:02037d000fd59a
:02037e000fd698
:02037f000fd796
:020380000fd795
:020381000fd893
:020382000fd991
:020383000fd990
:020384000fda8e
:020385000fda8d
:020386000fdb8b
:020387000fdb8a
:020388000fdc88
:020389000fdd86
:02038a000fdd85
:02038b000fde83
:02038c000fde82
:02038d000fdf80
:02038e000fdf7f
:02038f000fe07d
:020390000fe07c
:020391000fe17a
:020392000fe278
:020393000fe277
:020394000fe375
:020395000fe374
:020396000fe472
:020397000fe471
:020398000fe56f
:020399000fe56e
:02039a000fe66c
:02039b000fe66b
:02039c000fe769
:02039d000fe768
:02039e000fe866
:02039f000fe865
:0203a0000fe864
:0203a1000fe962
:0203a2000fe961
:0203a3000fea5f
:0203a4000fea5e
:0203a5000feb5c
:0203a6000feb5b
:0203a7000fec59
:0203a8000fec58
:0203a9000fec57
:0203aa000fed55
:0203ab000fed54
:0203ac000fee52
:0203ad000fee51
:0203ae000fee50
:0203af000fef4e
:0203b0000fef4d
:0203b1000ff04b
:0203b2000ff04a
:0203b3000ff049
:0203b4000ff147
:0203b5000ff146
:0203b6000ff145
:0203b7000ff243
:0203b8000ff242
:0203b9000ff241
:0203ba000ff33f
:0203bb000ff33e
:0203bc000ff33d
:0203bd000ff43b
:0203be000ff43a
:0203bf000ff439
:0203c0000ff537
:0203c1000ff536
:0203c2000ff535
:0203c3000ff633
:0203c4000ff632
:0203c5000ff631
:0203c6000ff630
:0203c7000ff72e
:0203c8000ff72d
:0203c9000ff72c
:0203ca000ff82a
:0203cb000ff829
:0203cc000ff828
:0203cd000ff827
:0203ce000ff925
:0203cf000ff924
:0203d0000ff923
:0203d1000ff922
:0203d2000ff921
:0203d3000ffa1f
:0203d4000ffa1e
:0203d5000ffa1d
:0203d6000ffa1c
:0203d7000ffa1b
:0203d8000ffb19
:0203d9000ffb18
:0203da000ffb17
:0203db000ffb16
:0203dc000ffb15
:0203dd000ffc13
:0203de000ffc12
:0203df000ffc11
:0203e0000ffc10
:0203e1000ffc0f
:0203e2000ffc0e
:0203e3000ffd0c
:0203e4000ffd0b
:0203e5000ffd0a
:0203e6000ffd09
:0203e7000ffd08
:0203e8000ffd07
:0203e9000ffd06
:0203ea000ffd05
:0203eb000ffd04
:0203ec000ffe02
:0203ed000ffe01
:0203ee000ffe00
:0203ef000ffeff
:0203f0000ffefe
:0203f1000ffefd
:0203f2000ffefc
:0203f3000ffefb
:0203f4000ffefa
:0203f5000ffef9
:0203f6000ffef8
:0203f7000ffef7
:0203f8000ffef6
:0203f9000ffef5
:0203fa000ffef4
:0203fb000ffef3
:0203fc000ffef2
:0203fd000ffef1
:0203fe000ffef0
:0203ff000ffeef
:020400000ffeed
:020401000ffeec
:020402000ffeeb
:020403000ffeea
:020404000ffee9
:020405000ffee8
:020406000ffee7
:020407000ffee6
:020408000ffee5
:020409000ffee4
:02040a000ffee3
:02040b000ffee2
:02040c000ffee1
:02040d000ffee0
:02040e000ffedf
:02040f000ffede
:020410000ffedd
:020411000ffedc
:020412000ffedb
:020413000ffeda
:020414000ffed9
:020415000ffdd9
:020416000ffdd8
:020417000ffdd7
:020418000ffdd6
:020419000ffdd5
:02041a000ffdd4
:02041b000ffdd3
:02041c000ffdd2
:02041d000ffcd2
:02041e000ffcd1
:02041f000ffcd0
:020420000ffccf
:020421000ffcce
:020422000ffccd
:020423000ffccc
:020424000ffbcc
:020425000ffbcb
:020426000ffbca
:020427000ffbc9
:020428000ffbc8
:020429000ffac8
:02042a000ffac7
:02042b000ffac6
:02042c000ffac5
:02042d000ffac4
:02042e000ff9c4
:02042f000ff9c3
:020430000ff9c2
:020431000ff9c1
:020432000ff8c1
:020433000ff8c0
:020434000ff8bf
:020435000ff8be
:020436000ff7be
:020437000ff7bd
:020438000ff7bc
:020439000ff7bb
:02043a000ff6bb
:02043b000ff6ba
:02043c000ff6b9
:02043d000ff5b9
:02043e000ff5b8
:02043f000ff5b7
:020440000ff5b6
:020441000ff4b6
:020442000ff4b5
:020443000ff4b4
:020444000ff3b4
:020445000ff3b3
:020446000ff3b2
:020447000ff2b2
:020448000ff2b1
:020449000ff2b0
:02044a000ff1b0
:02044b000ff1af
:02044c000ff1ae
:02044d000ff0ae
:02044e000ff0ad
:02044f000fefad
:020450000fefac
:020451000fefab
:020452000feeab
:020453000feeaa
:020454000fedaa
:020455000feda9
:020456000feda8
:020457000feca8
:020458000feca7
:020459000feba7
:02045a000feba6
:02045b000feaa6
:02045c000feaa5
:02045d000feaa4
:02045e000fe9a4
:02045f000fe9a3
:020460000fe8a3
:020461000fe8a2
:020462000fe7a2
:020463000fe7a1
:020464000fe6a1
:020465000fe6a0
:020466000fe5a0
:020467000fe59f
:020468000fe49f
:020469000fe49e
:02046a000fe39e
:02046b000fe39d
:02046c000fe29d
:02046d000fe29c
:02046e000fe19c
:02046f000fe19b
:020470000fe09b
:020471000fe09a
:020472000fdf9a
:020473000fdf99
:020474000fde99
:020475000fdd99
:020476000fdd98
:020477000fdc98
:020478000fdc97
:020479000fdb97
:02047a000fdb96
:02047b000fda96
:02047c000fd996
:02047d000fd995
:02047e000fd895
:02047f000fd894
:020480000fd794
:020481000fd694
:020482000fd693
:020483000fd593
:020484000fd493
:020485000fd492
:020486000fd392
:020487000fd391
:020488000fd291
:020489000fd191
:02048a000fd190
:02048b000fd090
:02048c000fcf90
:02048d000fcf8f
:02048e000fce8f
:02048f000fcd8f
:020490000fcd8e
:020491000fcc8e
:020492000fcb8e
:020493000fca8e
:020494000fca8d
:020495000fc98d
:020496000fc88d
:020497000fc88c
:020498000fc78c
:020499000fc68c
:02049a000fc58c
:02049b000fc58b
:02049c000fc48b
:02049d000fc38b
:02049e000fc28b
:02049f000fc28a
:0204a0000fc18a
:0204a1000fc08a
:0204a2000fbf8a
:0204a3000fbf89
:0204a4000fbe89
:0204a5000fbd89
:0204a6000fbc89
:0204a7000fbb89
:0204a8000fbb88
:0204a9000fba88
:0204aa000fb988
:0204ab000fb888
:0204ac000fb788
:0204ad000fb787
:0204ae000fb687
:0204af000fb587
:0204b0000fb487
:0204b1000fb387
:0204b2000fb287
:0204b3000fb286
:0204b4000fb186
:0204b5000fb086
:0204b6000faf86
:0204b7000fae86
:0204b8000fad86
:0204b9000fac86
:0204ba000fab86
:0204bb000fab85
:0204bc000faa85
:0204bd000fa985
:0204be000fa885
:0204bf000fa785
:0204c0000fa685
:0204c1000fa585
:0204c2000fa485
:0204c3000fa385
:0204c4000fa285
:0204c5000fa185
:0204c6000fa184
:0204c7000fa084
:0204c8000f9f84
:0204c9000f9e84
:0204ca000f9d84
:0204cb000f9c84
:0204cc000f9b84
:0204cd000f9a84
:0204ce000f9984
:0204cf000f9884
:0204d0000f9784
:0204d1000f9684
:0204d2000f9584
:0204d3000f9484
:0204d4000f9384
:0204d5000f9284
:0204d6000f9184
:0204d7000f9084
:0204d8000f8f84
:0204d9000f8e84
:0204da000f8d84
:0204db000f8c84
:0204dc000f8b84
:0204dd000f8a84
:0204de000f8984
:0204df000f8884
:0204e0000f8685
:0204e1000f8585
:0204e2000f8485
:0204e3000f8385
:0204e4000f8285
:0204e5000f8185
:0204e6000f8085
:0204e7000f7f85
:0204e8000f7e85
:0204e9000f7d85
:0204ea000f7c85
:0204eb000f7b85
:0204ec000f7986
:0204ed000f7886
:0204ee000f7786
:0204ef000f7686
:0204f0000f7586
:0204f1000f7486
:0204f2000f7386
:0204f3000f7286
:0204f4000f7087
:0204f5000f6f87
:0204f6000f6e87
:0204f7000f6d87
:0204f8000f6c87
:0204f9000f6b87
:0204fa000f6988
:0204fb000f6888
:0204fc000f6788
:0204fd000f6688
:0204fe000f6588
:0204ff000f6389
:020500000f6288
:020501000f6188
:020502000f6088
:020503000f5f88
:020504000f5d89
:020505000f5c89
:020506000f5b89
:020507000f5a89
:020508000f588a
:020509000f578a
:02050a000f568a
:02050b000f558a
:02050c000f548a
:02050d000f528b
:02050e000f518b
:02050f000f508b
:020510000f4e8c
:020511000f4d8c
:020512000f4c8c
:020513000f4b8c
:020514000f498d
:020515000f488d
:020516000f478d
:020517000f458e
:020518000f448e
:020519000f438e
:02051a000f418f
:02051b000f408f
:02051c000f3f8f
:02051d000f3e8f
:02051e000f3c90
:02051f000f3b90
:020520000f3991
:020521000f3891
:020522000f3791
:020523000f3592
:020524000f3492
:020525000f3392
:020526000f3193
:020527000f3093
:020528000f2f93
:020529000f2d94
:02052a000f2c94
:02052b000f2a95
:02052c000f2995
:02052d000f2895
:02052e000f2696
:02052f000f2596
:020530000f2397
:020531000f2297
:020532000f2197
:020533000f1f98
:020534000f1e98
:020535000f1c99
:020536000f1b99
:020537000f199a
:020538000f189a
:020539000f179a
:02053a000f159b
:02053b000f149b
:02053c000f129c
:02053d000f119c
:02053e000f0f9d
:02053f000f0e9d
:020540000f0c9e
:020541000f0b9e
:020542000f099f
:020543000f089f
:020544000f06a0
:020545000f05a0
:020546000f03a1
:020547000f02a1
:020548000f00a2
:020549000effa3
:02054a000efda4
:02054b000efca4
:02054c000efaa5
:02054d000ef9a5
:02054e000ef7a6
:02054f000ef6a6
:020550000ef4a7
:020551000ef2a8
:020552000ef1a8
:020553000eefa9
:020554000eeea9
:020555000eecaa
:020556000eebaa
:020557000ee9ab
:020558000ee7ac
:020559000ee6ac
:02055a000ee4ad
:02055b000ee3ad
:02055c000ee1ae
:02055d000edfaf
:02055e000edeaf
:02055f000edcb0
:020560000edbb0
:020561000ed9b1
:020562000ed7b2
:020563000ed6b2
:020564000ed4b3
:020565000ed3b3
:020566000ed1b4
:020567000ecfb5
:020568000eceb5
:020569000eccb6
:02056a000ecab7
:02056b000ec9b7
:02056c000ec7b8
:02056d000ec5b9
:02056e000ec4b9
:02056f000ec2ba
:020570000ec0bb
:020571000ebfbb
:020572000ebdbc
:020573000ebbbd
:020574000ebabd
:020575000eb8be
:020576000eb6bf
:020577000eb4c0
:020578000eb3c0
:020579000eb1c1
:02057a000eafc2
:02057b000eaec2
:02057c000eacc3
:02057d000eaac4
:02057e000ea8c5
:02057f000ea7c5
:020580000ea5c6
:020581000ea3c7
:020582000ea1c8
:020583000ea0c8
:020584000e9ec9
:020585000e9cca
:020586000e9acb
:020587000e99cb
:020588000e97cc
:020589000e95cd
:02058a000e93ce
:02058b000e91cf
:02058c000e90cf
:02058d000e8ed0
:02058e000e8cd1
:02058f000e8ad2
:020590000e88d3
:020591000e87d3
:020592000e85d4
:020593000e83d5
:020594000e81d6
:020595000e7fd7
:020596000e7dd8
:020597000e7cd8
:020598000e7ad9
:020599000e78da
:02059a000e76db
:02059b000e74dc
:02059c000e72dd
:02059d000e71dd
:02059e000e6fde
:02059f000e6ddf
:0205a0000e6be0
:0205a1000e69e1
:0205a2000e67e2
:0205a3000e65e3
:0205a4000e63e4
:0205a5000e61e5
:0205a6000e60e5
:0205a7000e5ee6
:0205a8000e5ce7
:0205a9000e5ae8
:0205aa000e58e9
:0205ab000e56ea
:0205ac000e54eb
:0205ad000e52ec
:0205ae000e50ed
:0205af000e4eee
:0205b0000e4cef
:0205b1000e4bef
:0205b2000e49f0
:0205b3000e47f1
:0205b4000e45f2
:0205b5000e43f3
:0205b6000e41f4
:0205b7000e3ff5
:0205b8000e3df6
:0205b9000e3bf7
:0205ba000e39f8
:0205bb000e37f9
:0205bc000e35fa
:0205bd000e33fb
:0205be000e31fc
:0205bf000e2ffd
:0205c0000e2dfe
:0205c1000e2bff
:0205c2000e2900
:0205c3000e2701
:0205c4000e2502
:0205c5000e2303
:0205c6000e2104
:0205c7000e1f05
:0205c8000e1d06
:0205c9000e1b07
:0205ca000e1908
:0205cb000e1709
:0205cc000e150a
:0205cd000e130b
:0205ce000e110c
:0205cf000e0f0d
:0205d0000e0d0e
:0205d1000e0b0f
:0205d2000e0910
:0205d3000e0612
:0205d4000e0413
:0205d5000e0214
:0205d6000e0015
:0205d7000dfe17
:0205d8000dfc18
:0205d9000dfa19
:0205da000df81a
:0205db000df61b
:0205dc000df41c
:0205dd000df21d
:0205de000df01e
:0205df000ded20
:0205e0000deb21
:0205e1000de922
:0205e2000de723
:0205e3000de524
:0205e4000de325
:0205e5000de126
:0205e6000ddf27
:0205e7000ddc29
:0205e8000dda2a
:0205e9000dd82b
:0205ea000dd62c
:0205eb000dd42d
:0205ec000dd22e
:0205ed000dd02f
:0205ee000dcd31
:0205ef000dcb32
:0205f0000dc933
:0205f1000dc734
:0205f2000dc535
:0205f3000dc336
:0205f4000dc038
:0205f5000dbe39
:0205f6000dbc3a
:0205f7000dba3b
:0205f8000db83c
:0205f9000db53e
:0205fa000db33f
:0205fb000db140
:0205fc000daf41
:0205fd000dad42
:0205fe000daa44
:0205ff000da845
:020600000da645
:020601000da446
:020602000da247
:020603000d9f49
:020604000d9d4a
:020605000d9b4b
:020606000d994c
:020607000d964e
:020608000d944f
:020609000d9250
:02060a000d9051
:02060b000d8d53
:02060c000d8b54
:02060d000d8955
:02060e000d8756
:02060f000d8458
:020610000d8259
:020611000d805a
:020612000d7d5c
:020613000d7b5d
:020614000d795e
:020615000d775f
:020616000d7461
:020617000d7262
:020618000d7063
:020619000d6d65
:02061a000d6b66
:02061b000d6967
:02061c000d6669
:02061d000d646a
:02061e000d626b
:02061f000d5f6d
:020620000d5d6e
:020621000d5b6f
:020622000d5871
:020623000d5672
:020624000d5473
:020625000d5175
:020626000d4f76
:020627000d4d77
:020628000d4a79
:020629000d487a
:02062a000d467b
:02062b000d437d
:02062c000d417e
:02062d000d3f7f
:02062e000d3c81
:02062f000d3a82
:020630000d3784
:020631000d3585
:020632000d3386
:020633000d3088
:020634000d2e89
:020635000d2c8a
:020636000d298c
:020637000d278d
:020638000d248f
:020639000d2290
:02063a000d1f92
:02063b000d1d93
:02063c000d1b94
:02063d000d1896
:02063e000d1697
:02063f000d1399
:020640000d119a
:020641000d0f9b
:020642000d0c9d
:020643000d0a9e
:020644000d07a0
:020645000d05a1
:020646000d02a3
:020647000d00a4
:020648000cfda7
:020649000cfba8
:02064a000cf9a9
:02064b000cf6ab
:02064c000cf4ac
:02064d000cf1ae
:02064e000cefaf
:02064f000cecb1
:020650000ceab2
:020651000ce7b4
:020652000ce5b5
:020653000ce2b7
:020654000ce0b8
:020655000cddba
:020656000cdbbb
:020657000cd8bd
:020658000cd6be
:020659000cd3c0
:02065a000cd1c1
:02065b000ccec3
:02065c000cccc4
:02065d000cc9c6
:02065e000cc7c7
:02065f000cc4c9
:020660000cc2ca
:020661000cbfcc
:020662000cbdcd
:020663000cbacf
:020664000cb8d0
:020665000cb5d2
:020666000cb2d4
:020667000cb0d5
:020668000cadd7
:020669000cabd8
:02066a000ca8da
:02066b000ca6db
:02066c000ca3dd
:02066d000ca1de
:02066e000c9ee0
:02066f000c9ce1
:020670000c99e3
:020671000c96e5
:020672000c94e6
:020673000c91e8
:020674000c8fe9
:020675000c8ceb
:020676000c89ed
:020677000c87ee
:020678000c84f0
:020679000c82f1
:02067a000c7ff3
:02067b000c7df4
:02067c000c7af6
:02067d000c77f8
:02067e000c75f9
:02067f000c72fb
:020680000c6ffd
:020681000c6dfe
:020682000c6a00
:020683000c6801
:020684000c6503
:020685000c6205
:020686000c6006
:020687000c5d08
:020688000c5a0a
:020689000c580b
:02068a000c550d
:02068b000c530e
:02068c000c5010
:02068d000c4d12
:02068e000c4b13
:02068f000c4815
:020690000c4517
:020691000c4318
:020692000c401a
:020693000c3d1c
:020694000c3b1d
:020695000c381f
:020696000c3521
:020697000c3322
:020698000c3024
:020699000c2d26
:02069a000c2b27
:02069b000c2829
:02069c000c252b
:02069d000c232c
:02069e000c202e
:02069f000c1d30
:0206a0000c1b31
:0206a1000c1833
:0206a2000c1535
:0206a3000c1237
:0206a4000c1038
:0206a5000c0d3a
:0206a6000c0a3c
:0206a7000c083d
:0206a8000c053f
:0206a9000c0241
:0206aa000bff44
:0206ab000bfd45
:0206ac000bfa47
:0206ad000bf749
:0206ae000bf54a
:0206af000bf24c
:0206b0000bef4e
:0206b1000bec50
:0206b2000bea51
:0206b3000be753
:0206b4000be455
:0206b5000be157
:0206b6000bdf58
:0206b7000bdc5a
:0206b8000bd95c
:0206b9000bd65e
:0206ba000bd45f
:0206bb000bd161
:0206bc000bce63
:0206bd000bcb65
:0206be000bc966
:0206bf000bc668
:0206c0000bc36a
:0206c1000bc06c
:0206c2000bbd6e
:0206c3000bbb6f
:0206c4000bb871
:0206c5000bb573
:0206c6000bb275
:0206c7000bb076
:0206c8000bad78
:0206c9000baa7a
:0206ca000ba77c
:0206cb000ba47e
:0206cc000ba27f
:0206cd000b9f81
:0206ce000b9c83
:0206cf000b9985
:0206d0000b9687
:0206d1000b9488
:0206d2000b918a
:0206d3000b8e8c
:0206d4000b8b8e
:0206d5000b8890
:0206d6000b8691
:0206d7000b8393
:0206d8000b8095
:0206d9000b7d97
:0206da000b7a99
:0206db000b779b
:0206dc000b759c
:0206dd000b729e
:0206de000b6fa0
:0206df000b6ca2
:0206e0000b69a4
:0206e1000b66a6
:0206e2000b64a7
:0206e3000b61a9
:0206e4000b5eab
:0206e5000b5bad
:0206e6000b58af
:0206e7000b55b1
:0206e8000b52b3
:0206e9000b50b4
:0206ea000b4db6
:0206eb000b4ab8
:0206ec000b47ba
:0206ed000b44bc
:0206ee000b41be
:0206ef000b3ec0
:0206f0000b3bc2
:0206f1000b39c3
:0206f2000b36c5
:0206f3000b33c7
:0206f4000b30c9
:0206f5000b2dcb
:0206f6000b2acd
:0206f7000b27cf
:0206f8000b24d1
:0206f9000b22d2
:0206fa000b1fd4
:0206fb000b1cd6
:0206fc000b19d8
:0206fd000b16da
:0206fe000b13dc
:0206ff000b10de
:020700000b0ddf
:020701000b0ae1
:020702000b07e3
:020703000b05e4
:020704000b02e6
:020705000affe9
:020706000afceb
:020707000af9ed
:020708000af6ef
:020709000af3f1
:02070a000af0f3
:02070b000aedf5
:02070c000aeaf7
:02070d000ae7f9
:02070e000ae4fb
:02070f000ae2fc
:020710000adffe
:020711000adc00
:020712000ad902
:020713000ad604
:020714000ad306
:020715000ad008
:020716000acd0a
:020717000aca0c
:020718000ac70e
:020719000ac410
:02071a000ac112
:02071b000abe14
:02071c000abb16
:02071d000ab818
:02071e000ab51a
:02071f000ab21c
:020720000aaf1e
:020721000aad1f
:020722000aaa21
:020723000aa723
:020724000aa425
:020725000aa127
:020726000a9e29
:020727000a9b2b
:020728000a982d
:020729000a952f
:02072a000a9231
:02072b000a8f33
:02072c000a8c35
:02072d000a8937
:02072e000a8639
:02072f000a833b
:020730000a803d
:020731000a7d3f
:020732000a7a41
:020733000a7743
:020734000a7445
:020735000a7147
:020736000a6e49
:020737000a6b4b
:020738000a684d
:020739000a654f
:02073a000a6251
:02073b000a5f53
:02073c000a5c55
:02073d000a5957
:02073e000a5659
:02073f000a535b
:020740000a505d
:020741000a4d5f
:020742000a4a61
:020743000a4763
:020744000a4465
:020745000a4167
:020746000a3e69
:020747000a3b6b
:020748000a386d
:020749000a356f
:02074a000a3271
:02074b000a2f73
:02074c000a2c75
:02074d000a2977
:02074e000a2679
:02074f000a237b
:020750000a207d
:020751000a1d7f
:020752000a1a81
:020753000a1783
:020754000a1485
:020755000a1187
:020756000a0e89
:020757000a0a8c
:020758000a078e
:020759000a0490
:02075a000a0192
:02075b0009fe95
:02075c0009fb97
:02075d0009f899
:02075e0009f59b
:02075f0009f29d
:0207600009ef9f
:0207610009eca1
:0207620009e9a3
:0207630009e6a5
:0207640009e3a7
:0207650009e0a9
:0207660009ddab
:0207670009daad
:0207680009d7af
:0207690009d4b1
:02076a0009d1b3
:02076b0009ceb5
:02076c0009cab8
:02076d0009c7ba
:02076e0009c4bc
:02076f0009c1be
:0207700009bec0
:0207710009bbc2
:0207720009b8c4
:0207730009b5c6
:0207740009b2c8
:0207750009afca
:0207760009accc
:0207770009a9ce
:0207780009a6d0
:0207790009a3d2
:02077a00099fd5
:02077b00099cd7
:02077c000999d9
:02077d000996db
:02077e000993dd
:02077f000990df
:02078000098de1
:02078100098ae3
:020782000987e5
:020783000984e7
:020784000981e9
:02078500097eeb
:02078600097aee
:020787000977f0
:020788000974f2
:020789000971f4
:02078a00096ef6
:02078b00096bf8
:02078c000968fa
:02078d000965fc
:02078e000962fe
:02078f00095f00
:02079000095c02
:02079100095805
:02079200095507
:02079300095209
:02079400094f0b
:02079500094c0d
:0207960009490f
:02079700094611
:02079800094313
:02079900094015
:02079a00093d17
:02079b0009391a
:02079c0009361c
:02079d0009331e
:02079e00093020
:02079f00092d22
:0207a000092a24
:0207a100092726
:0207a200092428
:0207a30009212a
:0207a400091e2c
:0207a500091a2f
:0207a600091731
:0207a700091433
:0207a800091135
:0207a900090e37
:0207aa00090b39
:0207ab0009083b
:0207ac0009053d
:0207ad00090140
:0207ae0008fe43
:0207af0008fb45
:0207b00008f847
:0207b10008f549
:0207b20008f24b
:0207b30008ef4d
:0207b40008ec4f
:0207b50008e951
:0207b60008e554
:0207b70008e256
:0207b80008df58
:0207b90008dc5a
:0207ba0008d95c
:0207bb0008d65e
:0207bc0008d360
:0207bd0008d062
:0207be0008cc65
:0207bf0008c967
:0207c00008c669
:0207c10008c36b
:0207c20008c06d
:0207c30008bd6f
:0207c40008ba71
:0207c50008b773
:0207c60008b376
:0207c70008b078
:0207c80008ad7a
:0207c90008aa7c
:0207ca0008a77e
:0207cb0008a480
:0207cc0008a182
:0207cd00089d85
:0207ce00089a87
:0207cf00089789
:0207d00008948b
:0207d10008918d
:0207d200088e8f
:0207d300088b91
:0207d400088893
:0207d500088496
:0207d600088198
:0207d700087e9a
:0207d800087b9c
:0207d90008789e
:0207da000875a0
:0207db000872a2
:0207dc00086ea5
:0207dd00086ba7
:0207de000868a9
:0207df000865ab
:0207e0000862ad
:0207e100085faf
:0207e200085cb1
:0207e3000859b3
:0207e4000855b6
:0207e5000852b8
:0207e600084fba
:0207e700084cbc
:0207e8000849be
:0207e9000846c0
:0207ea000843c2
:0207eb00083fc5
:0207ec00083cc7
:0207ed000839c9
:0207ee000836cb
:0207ef000833cd
:0207f0000830cf
:0207f100082dd1
:0207f2000829d4
:0207f3000826d6
:0207f4000823d8
:0207f5000820da
:0207f600081ddc
:0207f700081ade
:0207f8000817e0
:0207f9000813e3
:0207fa000810e5
:0207fb00080de7
:0207fc00080ae9
:0207fd000807eb
:0207fe000804ed
:0207ff000801ef
:0208000007fdf2
:0208010007faf4
:0208020007f7f6
:0208030007f4f8
:0208040007f1fa
:0208050007eefc
:0208060007ebfe
:0208070007e701
:0208080007e403
:0208090007e105
:02080a0007de07
:02080b0007db09
:02080c0007d80b
:02080d0007d50d
:02080e0007d110
:02080f0007ce12
:0208100007cb14
:0208110007c816
:0208120007c518
:0208130007c21a
:0208140007bf1c
:0208150007bb1f
:0208160007b821
:0208170007b523
:0208180007b225
:0208190007af27
:02081a0007ac29
:02081b0007a92b
:02081c0007a52e
:02081d0007a230
:02081e00079f32
:02081f00079c34
:02082000079936
:02082100079638
:0208220007933a
:0208230007903c
:02082400078c3f
:02082500078941
:02082600078643
:02082700078345
:02082800078047
:02082900077d49
:02082a00077a4b
:02082b0007764e
:02082c00077350
:02082d00077052
:02082e00076d54
:02082f00076a56
:02083000076758
:0208310007645a
:0208320007615c
:02083300075d5f
:02083400075a61
:02083500075763
:02083600075465
:02083700075167
:02083800074e69
:02083900074b6b
:02083a0007476e
:02083b00074470
:02083c00074172
:02083d00073e74
:02083e00073b76
:02083f00073878
:0208400007357a
:0208410007327c
:02084200072e7f
:02084300072b81
:02084400072883
:02084500072585
:02084600072287
:02084700071f89
:02084800071c8b
:0208490007198d
:02084a00071590
:02084b00071292
:02084c00070f94
:02084d00070c96
:02084e00070998
:02084f0007069a
:0208500007039c
:0208510007009e
:0208520006fda1
:0208530006f9a4
:0208540006f6a6
:0208550006f3a8
:0208560006f0aa
:0208570006edac
:0208580006eaae
:0208590006e7b0
:02085a0006e4b2
:02085b0006e0b5
:02085c0006ddb7
:02085d0006dab9
:02085e0006d7bb
:02085f0006d4bd
:0208600006d1bf
:0208610006cec1
:0208620006cbc3
:0208630006c8c5
:0208640006c5c7
:0208650006c1ca
:0208660006becc
:0208670006bbce
:0208680006b8d0
:0208690006b5d2
:02086a0006b2d4
:02086b0006afd6
:02086c0006acd8
:02086d0006a9da
:02086e0006a6dc
:02086f0006a2df
:02087000069fe1
:02087100069ce3
:020872000699e5
:020873000696e7
:020874000693e9
:020875000690eb
:02087600068ded
:02087700068aef
:020878000687f1
:020879000684f3
:02087a000680f6
:02087b00067df8
:02087c00067afa
:02087d000677fc
:02087e000674fe
:02087f00067100
:02088000066e02
:02088100066b04
:02088200066806
:02088300066508
:0208840006620a
:02088500065f0c
:02088600065b0f
:02088700065811
:02088800065513
:02088900065215
:02088a00064f17
:02088b00064c19
:02088c0006491b
:02088d0006461d
:02088e0006431f
:02088f00064021
:02089000063d23
:02089100063a25
:02089200063727
:02089300063429
:0208940006302c
:02089500062d2e
:02089600062a30
:02089700062732
:02089800062434
:02089900062136
:02089a00061e38
:02089b00061b3a
:02089c0006183c
:02089d0006153e
:02089e00061240
:02089f00060f42
:0208a000060c44
:0208a100060946
:0208a200060648
:0208a30006034a
:0208a40006004c
:0208a50005fd4f
:0208a60005fa51
:0208a70005f753
:0208a80005f455
:0208a90005f058
:0208aa0005ed5a
:0208ab0005ea5c
:0208ac0005e75e
:0208ad0005e460
:0208ae0005e162
:0208af0005de64
:0208b00005db66
:0208b10005d868
:0208b20005d56a
:0208b30005d26c
:0208b40005cf6e
:0208b50005cc70
:0208b60005c972
:0208b70005c674
:0208b80005c376
:0208b90005c078
:0208ba0005bd7a
:0208bb0005ba7c
:0208bc0005b77e
:0208bd0005b480
:0208be0005b182
:0208bf0005ae84
:0208c00005ab86
:0208c10005a888
:0208c20005a58a
:0208c30005a28c
:0208c400059f8e
:0208c500059c90
:0208c600059992
:0208c700059694
:0208c800059396
:0208c900059098
:0208ca00058d9a
:0208cb00058a9c
:0208cc0005879e
:0208cd000584a0
:0208ce000581a2
:0208cf00057ea4
:0208d000057ba6
:0208d1000578a8
:0208d2000575aa
:0208d3000572ac
:0208d400056fae
:0208d500056cb0
:0208d6000569b2
:0208d7000566b4
:0208d8000563b6
:0208d9000560b8
:0208da00055dba
:0208db00055abc
:0208dc000557be
:0208dd000554c0
:0208de000551c2
:0208df00054fc3
:0208e000054cc5
:0208e1000549c7
:0208e2000546c9
:0208e3000543cb
:0208e4000540cd
:0208e500053dcf
:0208e600053ad1
:0208e7000537d3
:0208e8000534d5
:0208e9000531d7
:0208ea00052ed9
:0208eb00052bdb
:0208ec000528dd
:0208ed000525df
:0208ee000522e1
:0208ef00051fe3
:0208f000051ce5
:0208f100051ae6
:0208f2000517e8
:0208f3000514ea
:0208f4000511ec
:0208f500050eee
:0208f600050bf0
:0208f7000508f2
:0208f8000505f4
:0208f9000502f6
:0208fa0004fff9
:0208fb0004fcfb
:0208fc0004f9fd
:0208fd0004f7fe
:0208fe0004f400
:0208ff0004f102
:0209000004ee03
:0209010004eb05
:0209020004e807
:0209030004e509
:0209040004e20b
:0209050004df0d
:0209060004dc0f
:0209070004da10
:0209080004d712
:0209090004d414
:02090a0004d116
:02090b0004ce18
:02090c0004cb1a
:02090d0004c81c
:02090e0004c51e
:02090f0004c31f
:0209100004c021
:0209110004bd23
:0209120004ba25
:0209130004b727
:0209140004b429
:0209150004b12b
:0209160004ae2d
:0209170004ac2e
:0209180004a930
:0209190004a632
:02091a0004a334
:02091b0004a036
:02091c00049d38
:02091d00049a3a
:02091e0004983b
:02091f0004953d
:0209200004923f
:02092100048f41
:02092200048c43
:02092300048945
:02092400048746
:02092500048448
:0209260004814a
:02092700047e4c
:02092800047b4e
:02092900047850
:02092a00047651
:02092b00047353
:02092c00047055
:02092d00046d57
:02092e00046a59
:02092f0004685a
:0209300004655c
:0209310004625e
:02093200045f60
:02093300045c62
:02093400045a63
:02093500045765
:02093600045467
:02093700045169
:02093800044e6b
:02093900044c6c
:02093a0004496e
:02093b00044670
:02093c00044372
:02093d00044173
:02093e00043e75
:02093f00043b77
:02094000043879
:0209410004357b
:0209420004337c
:0209430004307e
:02094400042d80
:02094500042a82
:02094600042883
:02094700042585
:02094800042287
:02094900041f89
:02094a00041d8a
:02094b00041a8c
:02094c0004178e
:02094d00041490
:02094e00041291
:02094f00040f93
:02095000040c95
:02095100040997
:02095200040798
:0209530004049a
:0209540004019c
:0209550003ff9e
:0209560003fca0
:0209570003f9a2
:0209580003f6a4
:0209590003f4a5
:02095a0003f1a7
:02095b0003eea9
:02095c0003ecaa
:02095d0003e9ac
:02095e0003e6ae
:02095f0003e3b0
:0209600003e1b1
:0209610003deb3
:0209620003dbb5
:0209630003d9b6
:0209640003d6b8
:0209650003d3ba
:0209660003d1bb
:0209670003cebd
:0209680003cbbf
:0209690003c9c0
:02096a0003c6c2
:02096b0003c3c4
:02096c0003c1c5
:02096d0003bec7
:02096e0003bbc9
:02096f0003b9ca
:0209700003b6cc
:0209710003b3ce
:0209720003b1cf
:0209730003aed1
:0209740003abd3
:0209750003a9d4
:0209760003a6d6
:0209770003a4d7
:0209780003a1d9
:02097900039edb
:02097a00039cdc
:02097b000399de
:02097c000396e0
:02097d000394e1
:02097e000391e3
:02097f00038fe4
:02098000038ce6
:020981000389e8
:020982000387e9
:020983000384eb
:020984000381ed
:02098500037fee
:02098600037cf0
:02098700037af1
:020988000377f3
:020989000375f4
:02098a000372f6
:02098b00036ff8
:02098c00036df9
:02098d00036afb
:02098e000368fc
:02098f000365fe
:02099000036200
:02099100036001
:02099200035d03
:02099300035b04
:02099400035806
:02099500035607
:02099600035309
:0209970003510a
:02099800034e0c
:02099900034c0d
:02099a0003490f
:02099b00034611
:02099c00034412
:02099d00034114
:02099e00033f15
:02099f00033c17
:0209a000033a18
:0209a10003371a
:0209a20003351b
:0209a30003321d
:0209a40003301e
:0209a500032d20
:0209a600032b21
:0209a700032823
:0209a800032624
:0209a900032326
:0209aa00032127
:0209ab00031e29
:0209ac00031c2a
:0209ad0003192c
:0209ae0003172d
:0209af0003142f
:0209b000031230
:0209b100030f32
:0209b200030d33
:0209b300030a35
:0209b400030836
:0209b500030538
:0209b600030339
:0209b70003013a
:0209b80002fe3d
:0209b90002fc3e
:0209ba0002f940
:0209bb0002f741
:0209bc0002f443
:0209bd0002f244
:0209be0002ef46
:0209bf0002ed47
:0209c00002eb48
:0209c10002e84a
:0209c20002e64b
:0209c30002e34d
:0209c40002e14e
:0209c50002df4f
:0209c60002dc51
:0209c70002da52
:0209c80002d754
:0209c90002d555
:0209ca0002d257
:0209cb0002d058
:0209cc0002ce59
:0209cd0002cb5b
:0209ce0002c95c
:0209cf0002c75d
:0209d00002c45f
:0209d10002c260
:0209d20002bf62
:0209d30002bd63
:0209d40002bb64
:0209d50002b866
:0209d60002b667
:0209d70002b468
:0209d80002b16a
:0209d90002af6b
:0209da0002ad6c
:0209db0002aa6e
:0209dc0002a86f
:0209dd0002a670
:0209de0002a372
:0209df0002a173
:0209e000029f74
:0209e100029c76
:0209e200029a77
:0209e300029878
:0209e40002957a
:0209e50002937b
:0209e60002917c
:0209e700028e7e
:0209e800028c7f
:0209e900028a80
:0209ea00028782
:0209eb00028583
:0209ec00028384
:0209ed00028185
:0209ee00027e87
:0209ef00027c88
:0209f000027a89
:0209f10002778b
:0209f20002758c
:0209f30002738d
:0209f40002718e
:0209f500026e90
:0209f600026c91
:0209f700026a92
:0209f800026893
:0209f900026595
:0209fa00026396
:0209fb00026197
:0209fc00025f98
:0209fd00025c9a
:0209fe00025a9b
:0209ff0002589c
:020a000002569c
:020a010002549d
:020a020002519f
:020a0300024fa0
:020a0400024da1
:020a0500024ba2
:020a06000249a3
:020a07000246a5
:020a08000244a6
:020a09000242a7
:020a0a000240a8
:020a0b00023ea9
:020a0c00023bab
:020a0d000239ac
:020a0e000237ad
:020a0f000235ae
:020a10000233af
:020a11000231b0
:020a1200022eb2
:020a1300022cb3
:020a1400022ab4
:020a15000228b5
:020a16000226b6
:020a17000224b7
:020a18000222b8
:020a1900021fba
:020a1a00021dbb
:020a1b00021bbc
:020a1c000219bd
:020a1d000217be
:020a1e000215bf
:020a1f000213c0
:020a20000211c1
:020a2100020ec3
:020a2200020cc4
:020a2300020ac5
:020a24000208c6
:020a25000206c7
:020a26000204c8
:020a27000202c9
:020a28000200ca
:020a290001fecc
:020a2a0001fccd
:020a2b0001face
:020a2c0001f8cf
:020a2d0001f5d1
:020a2e0001f3d2
:020a2f0001f1d3
:020a300001efd4
:020a310001edd5
:020a320001ebd6
:020a330001e9d7
:020a340001e7d8
:020a350001e5d9
:020a360001e3da
:020a370001e1db
:020a380001dfdc
:020a390001dddd
:020a3a0001dbde
:020a3b0001d9df
:020a3c0001d7e0
:020a3d0001d5e1
:020a3e0001d3e2
:020a3f0001d1e3
:020a400001cfe4
:020a410001cde5
:020a420001cbe6
:020a430001c9e7
:020a440001c7e8
:020a450001c5e9
:020a460001c3ea
:020a470001c1eb
:020a480001bfec
:020a490001bded
:020a4a0001bbee
:020a4b0001b9ef
:020a4c0001b7f0
:020a4d0001b5f1
:020a4e0001b3f2
:020a4f0001b2f2
:020a500001b0f3
:020a510001aef4
:020a520001acf5
:020a530001aaf6
:020a540001a8f7
:020a550001a6f8
:020a560001a4f9
:020a570001a2fa
:020a580001a0fb
:020a5900019efc
:020a5a00019dfc
:020a5b00019bfd
:020a5c000199fe
:020a5d000197ff
:020a5e00019500
:020a5f00019301
:020a6000019102
:020a6100018f03
:020a6200018d04
:020a6300018c04
:020a6400018a05
:020a6500018806
:020a6600018607
:020a6700018408
:020a6800018209
:020a6900018109
:020a6a00017f0a
:020a6b00017d0b
:020a6c00017b0c
:020a6d0001790d
:020a6e0001770e
:020a6f0001760e
:020a700001740f
:020a7100017210
:020a7200017011
:020a7300016e12
:020a7400016d12
:020a7500016b13
:020a7600016914
:020a7700016715
:020a7800016516
:020a7900016416
:020a7a00016217
:020a7b00016018
:020a7c00015e19
:020a7d00015d19
:020a7e00015b1a
:020a7f0001591b
:020a800001571c
:020a810001561c
:020a820001541d
:020a830001521e
:020a840001501f
:020a8500014f1f
:020a8600014d20
:020a8700014b21
:020a8800014a21
:020a8900014822
:020a8a00014623
:020a8b00014424
:020a8c00014324
:020a8d00014125
:020a8e00013f26
:020a8f00013e26
:020a9000013c27
:020a9100013a28
:020a9200013928
:020a9300013729
:020a940001352a
:020a950001342a
:020a960001322b
:020a970001302c
:020a9800012f2c
:020a9900012d2d
:020a9a00012b2e
:020a9b00012a2e
:020a9c0001282f
:020a9d0001272f
:020a9e00012530
:020a9f00012331
:020aa000012231
:020aa100012032
:020aa200011f32
:020aa300011d33
:020aa400011b34
:020aa500011a34
:020aa600011835
:020aa700011735
:020aa800011536
:020aa900011337
:020aaa00011237
:020aab00011038
:020aac00010f38
:020aad00010d39
:020aae00010c39
:020aaf00010a3a
:020ab00001083b
:020ab10001073b
:020ab20001053c
:020ab30001043c
:020ab40001023d
:020ab50001013d
:020ab60000ff3f
:020ab70000fe3f
:020ab80000fc40
:020ab90000fb40
:020aba0000f941
:020abb0000f841
:020abc0000f642
:020abd0000f542
:020abe0000f343
:020abf0000f243
:020ac00000f044
:020ac10000ef44
:020ac20000ed45
:020ac30000ec45
:020ac40000ea46
:020ac50000e946
:020ac60000e747
:020ac70000e647
:020ac80000e547
:020ac90000e348
:020aca0000e248
:020acb0000e049
:020acc0000df49
:020acd0000dd4a
:020ace0000dc4a
:020acf0000db4a
:020ad00000d94b
:020ad10000d84b
:020ad20000d64c
:020ad30000d54c
:020ad40000d44c
:020ad50000d24d
:020ad60000d14d
:020ad70000cf4e
:020ad80000ce4e
:020ad90000cd4e
:020ada0000cb4f
:020adb0000ca4f
:020adc0000c94f
:020add0000c750
:020ade0000c650
:020adf0000c550
:020ae00000c351
:020ae10000c251
:020ae20000c052
:020ae30000bf52
:020ae40000be52
:020ae50000bd52
:020ae60000bb53
:020ae70000ba53
:020ae80000b953
:020ae90000b754
:020aea0000b654
:020aeb0000b554
:020aec0000b355
:020aed0000b255
:020aee0000b155
:020aef0000b055
:020af00000ae56
:020af10000ad56
:020af20000ac56
:020af30000aa57
:020af40000a957
:020af50000a857
:020af60000a757
:020af70000a657
:020af80000a458
:020af90000a358
:020afa0000a258
:020afb0000a158
:020afc00009f59
:020afd00009e59
:020afe00009d59
:020aff00009c59
:020b0000009b58
:020b0100009959
:020b0200009859
:020b0300009759
:020b0400009659
:020b0500009559
:020b060000935a
:020b070000925a
:020b080000915a
:020b090000905a
:020b0a00008f5a
:020b0b00008e5a
:020b0c00008c5b
:020b0d00008b5b
:020b0e00008a5b
:020b0f0000895b
:020b100000885b
:020b110000875b
:020b120000865b
:020b130000855b
:020b140000835c
:020b150000825c
:020b160000815c
:020b170000805c
:020b1800007f5c
:020b1900007e5c
:020b1a00007d5c
:020b1b00007c5c
:020b1c00007b5c
:020b1d00007a5c
:020b1e0000795c
:020b1f0000785c
:020b200000765d
:020b210000755d
:020b220000745d
:020b230000735d
:020b240000725d
:020b250000715d
:020b260000705d
:020b2700006f5d
:020b2800006e5d
:020b2900006d5d
:020b2a00006c5d
:020b2b00006b5d
:020b2c00006a5d
:020b2d0000695d
:020b2e0000685d
:020b2f0000675d
:020b300000665d
:020b310000655d
:020b320000645d
:020b330000635d
:020b340000625d
:020b350000615d
:020b360000605d
:020b3700005f5d
:020b3800005e5d
:020b3900005d5d
:020b3a00005d5c
:020b3b00005c5c
:020b3c00005b5c
:020b3d00005a5c
:020b3e0000595c
:020b3f0000585c
:020b400000575c
:020b410000565c
:020b420000555c
:020b430000545c
:020b440000535c
:020b450000535b
:020b460000525b
:020b470000515b
:020b480000505b
:020b4900004f5b
:020b4a00004e5b
:020b4b00004d5b
:020b4c00004c5b
:020b4d00004c5a
:020b4e00004b5a
:020b4f00004a5a
:020b500000495a
:020b510000485a
:020b520000475a
:020b5300004759
:020b5400004659
:020b5500004559
:020b5600004459
:020b5700004359
:020b5800004358
:020b5900004258
:020b5a00004158
:020b5b00004058
:020b5c00003f58
:020b5d00003f57
:020b5e00003e57
:020b5f00003d57
:020b6000003c57
:020b6100003c56
:020b6200003b56
:020b6300003a56
:020b6400003956
:020b6500003955
:020b6600003855
:020b6700003755
:020b6800003655
:020b6900003654
:020b6a00003554
:020b6b00003454
:020b6c00003453
:020b6d00003353
:020b6e00003253
:020b6f00003153
:020b7000003152
:020b7100003052
:020b7200002f52
:020b7300002f51
:020b7400002e51
:020b7500002d51
:020b7600002d50
:020b7700002c50
:020b7800002b50
:020b7900002b4f
:020b7a00002a4f
:020b7b00002a4e
:020b7c0000294e
:020b7d0000284e
:020b7e0000284d
:020b7f0000274d
:020b800000264d
:020b810000264c
:020b820000254c
:020b830000254b
:020b840000244b
:020b850000234b
:020b860000234a
:020b870000224a
:020b8800002249
:020b8900002149
:020b8a00002148
:020b8b00002048
:020b8c00001f48
:020b8d00001f47
:020b8e00001e47
:020b8f00001e46
:020b9000001d46
:020b9100001d45
:020b9200001c45
:020b9300001c44
:020b9400001b44
:020b9500001b43
:020b9600001a43
:020b9700001a42
:020b9800001942
:020b9900001941
:020b9a00001841
:020b9b00001840
:020b9c00001740
:020b9d0000173f
:020b9e0000163f
:020b9f0000163e
:020ba00000153e
:020ba10000153d
:020ba20000143d
:020ba30000143c
:020ba40000143b
:020ba50000133b
:020ba60000133a
:020ba70000123a
:020ba800001239
:020ba900001139
:020baa00001138
:020bab00001137
:020bac00001037
:020bad00001036
:020bae00000f36
:020baf00000f35
:020bb000000f34
:020bb100000e34
:020bb200000e33
:020bb300000d33
:020bb400000d32
:020bb500000d31
:020bb600000c31
:020bb700000c30
:020bb800000c2f
:020bb900000b2f
:020bba00000b2e
:020bbb00000b2d
:020bbc00000a2d
:020bbd00000a2c
:020bbe00000a2b
:020bbf0000092b
:020bc00000092a
:020bc100000929
:020bc200000928
:020bc300000828
:020bc400000827
:020bc500000826
:020bc600000726
:020bc700000725
:020bc800000724
:020bc900000723
:020bca00000623
:020bcb00000622
:020bcc00000621
:020bcd00000620
:020bce00000520
:020bcf0000051f
:020bd00000051e
:020bd10000051d
:020bd20000041d
:020bd30000041c
:020bd40000041b
:020bd50000041a
:020bd600000419
:020bd700000319
:020bd800000318
:020bd900000317
:020bda00000316
:020bdb00000315
:020bdc00000215
:020bdd00000214
:020bde00000213
:020bdf00000212
:020be000000211
:020be100000210
:020be20000020f
:020be30000010f
:020be40000010e
:020be50000010d
:020be60000010c
:020be70000010b
:020be80000010a
:020be900000109
:020bea00000108
:020beb00000008
:020bec00000007
:020bed00000006
:020bee00000005
:020bef00000004
:020bf000000003
:020bf100000002
:020bf200000001
:020bf300000000
:020bf4000000ff
:020bf5000000fe
:020bf6000000fd
:020bf7000000fc
:020bf8000000fb
:020bf9000000fa
:020bfa000000f9
:020bfb000000f8
:020bfc000000f7
:020bfd000000f6
:020bfe000000f5
:020bff000000f4
:020c00000000f2
:020c01000000f1
:020c02000000f0
:020c03000000ef
:020c04000000ee
:020c05000000ed
:020c06000000ec
:020c07000000eb
:020c08000000ea
:020c09000000e9
:020c0a000000e8
:020c0b000000e7
:020c0c000000e6
:020c0d000000e5
:020c0e000000e4
:020c0f000000e3
:020c10000000e2
:020c11000000e1
:020c12000000e0
:020c13000000df
:020c14000001dd
:020c15000001dc
:020c16000001db
:020c17000001da
:020c18000001d9
:020c19000001d8
:020c1a000001d7
:020c1b000001d6
:020c1c000001d5
:020c1d000002d3
:020c1e000002d2
:020c1f000002d1
:020c20000002d0
:020c21000002cf
:020c22000002ce
:020c23000003cc
:020c24000003cb
:020c25000003ca
:020c26000003c9
:020c27000003c8
:020c28000004c6
:020c29000004c5
:020c2a000004c4
:020c2b000004c3
:020c2c000004c2
:020c2d000005c0
:020c2e000005bf
:020c2f000005be
:020c30000005bd
:020c31000005bc
:020c32000006ba
:020c33000006b9
:020c34000006b8
:020c35000006b7
:020c36000007b5
:020c37000007b4
:020c38000007b3
:020c39000008b1
:020c3a000008b0
:020c3b000008af
:020c3c000008ae
:020c3d000009ac
:020c3e000009ab
:020c3f000009aa
:020c4000000aa8
:020c4100000aa7
:020c4200000aa6
:020c4300000ba4
:020c4400000ba3
:020c4500000ba2
:020c4600000ca0
:020c4700000c9f
:020c4800000c9e
:020c4900000d9c
:020c4a00000d9b
:020c4b00000d9a
:020c4c00000e98
:020c4d00000e97
:020c4e00000e96
:020c4f00000f94
:020c5000000f93
:020c5100001091
:020c5200001090
:020c530000108f
:020c540000118d
:020c550000118c
:020c560000128a
:020c5700001289
:020c5800001288
:020c5900001386
:020c5a00001385
:020c5b00001483
:020c5c00001482
:020c5d00001580
:020c5e0000157f
:020c5f0000167d
:020c600000167c
:020c610000167b
:020c6200001779
:020c6300001778
:020c6400001876
:020c6500001875
:020c6600001973
:020c6700001972
:020c6800001a70
:020c6900001a6f
:020c6a00001b6d
:020c6b00001b6c
:020c6c00001c6a
:020c6d00001c69
:020c6e00001d67
:020c6f00001e65
:020c7000001e64
:020c7100001f62
:020c7200001f61
:020c730000205f
:020c740000205e
:020c750000215c
:020c760000215b
:020c7700002259
:020c7800002357
:020c7900002356
:020c7a00002454
:020c7b00002453
:020c7c00002551
:020c7d00002550
:020c7e0000264e
:020c7f0000274c
:020c800000274b
:020c8100002849
:020c8200002947
:020c8300002946
:020c8400002a44
:020c8500002a43
:020c8600002b41
:020c8700002c3f
:020c8800002c3e
:020c8900002d3c
:020c8a00002e3a
:020c8b00002e39
:020c8c00002f37
:020c8d00003035
:020c8e00003034
:020c8f00003132
:020c9000003230
:020c910000322f
:020c920000332d
:020c930000342b
:020c9400003529
:020c9500003528
:020c9600003626
:020c9700003724
:020c9800003723
:020c9900003821
:020c9a0000391f
:020c9b00003a1d
:020c9c00003a1c
:020c9d00003b1a
:020c9e00003c18
:020c9f00003d16
:020ca000003d15
:020ca100003e13
:020ca200003f11
:020ca30000400f
:020ca40000410d
:020ca50000410c
:020ca60000420a
:020ca700004308
:020ca800004406
:020ca900004504
:020caa00004503
:020cab00004601
:020cac000047ff
:020cad000048fd
:020cae000049fb
:020caf000049fa
:020cb000004af8
:020cb100004bf6
:020cb200004cf4
:020cb300004df2
:020cb400004ef0
:020cb500004fee
:020cb600004fed
:020cb7000050eb
:020cb8000051e9
:020cb9000052e7
:020cba000053e5
:020cbb000054e3
:020cbc000055e1
:020cbd000056df
:020cbe000057dd
:020cbf000057dc
:020cc0000058da
:020cc1000059d8
:020cc200005ad6
:020cc300005bd4
:020cc400005cd2
:020cc500005dd0
:020cc600005ece
:020cc700005fcc
:020cc8000060ca
:020cc9000061c8
:020cca000062c6
:020ccb000063c4
:020ccc000064c2
:020ccd000065c0
:020cce000066be
:020ccf000067bc
:020cd0000068ba
:020cd1000069b8
:020cd200006ab6
:020cd300006bb4
:020cd400006cb2
:020cd500006db0
:020cd600006eae
:020cd700006fac
:020cd8000070aa
:020cd9000071a8
:020cda000072a6
:020cdb000073a4
:020cdc000074a2
:020cdd000075a0
:020cde0000769e
:020cdf0000779c
:020ce00000789a
:020ce100007998
:020ce200007a96
:020ce300007b94
:020ce400007c92
:020ce500007d90
:020ce600007e8e
:020ce70000808b
:020ce800008189
:020ce900008287
:020cea00008385
:020ceb00008483
:020cec00008581
:020ced0000867f
:020cee0000877d
:020cef0000887b
:020cf000008a78
:020cf100008b76
:020cf200008c74
:020cf300008d72
:020cf400008e70
:020cf500008f6e
:020cf60000906c
:020cf700009269
:020cf800009367
:020cf900009465
:020cfa00009563
:020cfb00009661
:020cfc0000985e
:020cfd0000995c
:020cfe00009a5a
:020cff00009b58
:020d0000009c55
:020d0100009e52
:020d0200009f50
:020d030000a04e
:020d040000a14c
:020d050000a24a
:020d060000a447
:020d070000a545
:020d080000a643
:020d090000a741
:020d0a0000a93e
:020d0b0000aa3c
:020d0c0000ab3a
:020d0d0000ac38
:020d0e0000ae35
:020d0f0000af33
:020d100000b031
:020d110000b12f
:020d120000b32c
:020d130000b42a
:020d140000b528
:020d150000b725
:020d160000b823
:020d170000b921
:020d180000bb1e
:020d190000bc1c
:020d1a0000bd1a
:020d1b0000bf17
:020d1c0000c015
:020d1d0000c113
:020d1e0000c310
:020d1f0000c40e
:020d200000c50c
:020d210000c709
:020d220000c807
:020d230000c905
:020d240000cb02
:020d250000cc00
:020d260000cdfe
:020d270000cffb
:020d280000d0f9
:020d290000d1f7
:020d2a0000d3f4
:020d2b0000d4f2
:020d2c0000d6ef
:020d2d0000d7ed
:020d2e0000d8eb
:020d2f0000dae8
:020d300000dbe6
:020d310000dde3
:020d320000dee1
:020d330000e0de
:020d340000e1dc
:020d350000e2da
:020d360000e4d7
:020d370000e5d5
:020d380000e7d2
:020d390000e8d0
:020d3a0000eacd
:020d3b0000ebcb
:020d3c0000edc8
:020d3d0000eec6
:020d3e0000f0c3
:020d3f0000f1c1
:020d400000f2bf
:020d410000f4bc
:020d420000f5ba
:020d430000f7b7
:020d440000f8b5
:020d450000fab2
:020d460000fbb0
:020d470000fdad
:020d480000ffaa
:020d49000100a7
:020d4a000102a4
:020d4b000103a2
:020d4c0001059f
:020d4d0001069d
:020d4e0001089a
:020d4f00010998
:020d5000010b95
:020d5100010c93
:020d5200010e90
:020d5300010f8e
:020d540001118b
:020d5500011388
:020d5600011486
:020d5700011683
:020d5800011781
:020d590001197e
:020d5a00011b7b
:020d5b00011c79
:020d5c00011e76
:020d5d00011f74
:020d5e00012171
:020d5f0001236e
:020d600001246c
:020d6100012669
:020d6200012767
:020d6300012964
:020d6400012b61
:020d6500012c5f
:020d6600012e5c
:020d6700013059
:020d6800013157
:020d6900013354
:020d6a00013551
:020d6b0001364f
:020d6c0001384c
:020d6d00013a49
:020d6e00013b47
:020d6f00013d44
:020d7000013f41
:020d710001403f
:020d720001423c
:020d7300014439
:020d7400014537
:020d7500014734
:020d7600014931
:020d7700014a2f
:020d7800014c2c
:020d7900014e29
:020d7a00015026
:020d7b00015124
:020d7c00015321
:020d7d0001551e
:020d7e0001571b
:020d7f00015819
:020d8000015a16
:020d8100015c13
:020d8200015e10
:020d8300015f0e
:020d840001610b
:020d8500016308
:020d8600016505
:020d8700016603
:020d8800016800
:020d8900016afd
:020d8a00016cfa
:020d8b00016ef7
:020d8c00016ff5
:020d8d000171f2
:020d8e000173ef
:020d8f000175ec
:020d90000177e9
:020d91000178e7
:020d9200017ae4
:020d9300017ce1
:020d9400017ede
:020d95000180db
:020d96000181d9
:020d97000183d6
:020d98000185d3
:020d99000187d0
:020d9a000189cd
:020d9b00018bca
:020d9c00018dc7
:020d9d00018ec5
:020d9e000190c2
:020d9f000192bf
:020da0000194bc
:020da1000196b9
:020da2000198b6
:020da300019ab3
:020da400019cb0
:020da500019dae
:020da600019fab
:020da70001a1a8
:020da80001a3a5
:020da90001a5a2
:020daa0001a79f
:020dab0001a99c
:020dac0001ab99
:020dad0001ad96
:020dae0001af93
:020daf0001b190
:020db00001b38d
:020db10001b48b
:020db20001b688
:020db30001b885
:020db40001ba82
:020db50001bc7f
:020db60001be7c
:020db70001c079
:020db80001c276
:020db90001c473
:020dba0001c670
:020dbb0001c86d
:020dbc0001ca6a
:020dbd0001cc67
:020dbe0001ce64
:020dbf0001d061
:020dc00001d25e
:020dc10001d45b
:020dc20001d658
:020dc30001d855
:020dc40001da52
:020dc50001dc4f
:020dc60001de4c
:020dc70001e049
:020dc80001e246
:020dc90001e443
:020dca0001e640
:020dcb0001e83d
:020dcc0001ea3a
:020dcd0001ec37
:020dce0001ee34
:020dcf0001f031
:020dd00001f22e
:020dd10001f42b
:020dd20001f727
:020dd30001f924
:020dd40001fb21
:020dd50001fd1e
:020dd60001ff1b
:020dd700020117
:020dd800020314
:020dd900020511
:020dda0002070e
:020ddb0002090b
:020ddc00020b08
:020ddd00020d05
:020dde00021001
:020ddf000212fe
:020de0000214fb
:020de1000216f8
:020de2000218f5
:020de300021af2
:020de400021cef
:020de500021eec
:020de6000220e9
:020de7000223e5
:020de8000225e2
:020de9000227df
:020dea000229dc
:020deb00022bd9
:020dec00022dd6
:020ded000230d2
:020dee000232cf
:020def000234cc
:020df0000236c9
:020df1000238c6
:020df200023ac3
:020df300023dbf
:020df400023fbc
:020df5000241b9
:020df6000243b6
:020df7000245b3
:020df8000247b0
:020df900024aac
:020dfa00024ca9
:020dfb00024ea6
:020dfc000250a3
:020dfd000252a0
:020dfe0002559c
:020dff00025799
:020e0000025995
:020e0100025b92
:020e0200025e8e
:020e030002608b
:020e0400026288
:020e0500026485
:020e0600026781
:020e070002697e
:020e0800026b7b
:020e0900026d78
:020e0a00027074
:020e0b00027271
:020e0c0002746e
:020e0d0002766b
:020e0e00027967
:020e0f00027b64
:020e1000027d61
:020e1100027f5e
:020e120002825a
:020e1300028457
:020e1400028654
:020e1500028950
:020e1600028b4d
:020e1700028d4a
:020e1800028f47
:020e1900029243
:020e1a00029440
:020e1b0002963d
:020e1c00029939
:020e1d00029b36
:020e1e00029d33
:020e1f0002a02f
:020e200002a22c
:020e210002a429
:020e220002a725
:020e230002a922
:020e240002ab1f
:020e250002ae1b
:020e260002b018
:020e270002b215
:020e280002b511
:020e290002b70e
:020e2a0002ba0a
:020e2b0002bc07
:020e2c0002be04
:020e2d0002c100
:020e2e0002c3fd
:020e2f0002c5fa
:020e300002c8f6
:020e310002caf3
:020e320002cdef
:020e330002cfec
:020e340002d1e9
:020e350002d4e5
:020e360002d6e2
:020e370002d8df
:020e380002dbdb
:020e390002ddd8
:020e3a0002e0d4
:020e3b0002e2d1
:020e3c0002e5cd
:020e3d0002e7ca
:020e3e0002e9c7
:020e3f0002ecc3
:020e400002eec0
:020e410002f1bc
:020e420002f3b9
:020e430002f6b5
:020e440002f8b2
:020e450002faaf
:020e460002fdab
:020e470002ffa8
:020e48000302a3
:020e49000304a0
:020e4a0003079c
:020e4b00030999
:020e4c00030c95
:020e4d00030e92
:020e4e0003118e
:020e4f0003138b
:020e5000031687
:020e5100031884
:020e5200031a81
:020e5300031d7d
:020e5400031f7a
:020e5500032276
:020e5600032473
:020e570003276f
:020e580003296c
:020e5900032c68
:020e5a00032e65
:020e5b00033161
:020e5c0003335e
:020e5d0003365a
:020e5e00033956
:020e5f00033b53
:020e6000033e4f
:020e610003404c
:020e6200034348
:020e6300034545
:020e6400034841
:020e6500034a3e
:020e6600034d3a
:020e6700034f37
:020e6800035233
:020e6900035430
:020e6a0003572c
:020e6b00035a28
:020e6c00035c25
:020e6d00035f21
:020e6e0003611e
:020e6f0003641a
:020e7000036617
:020e7100036913
:020e7200036b10
:020e7300036e0c
:020e7400037108
:020e7500037305
:020e7600037601
:020e77000378fe
:020e7800037bfa
:020e7900037ef6
:020e7a000380f3
:020e7b000383ef
:020e7c000385ec
:020e7d000388e8
:020e7e00038be4
:020e7f00038de1
:020e80000390dd
:020e81000392da
:020e82000395d6
:020e83000398d2
:020e8400039acf
:020e8500039dcb
:020e860003a0c7
:020e870003a2c4
:020e880003a5c0
:020e890003a7bd
:020e8a0003aab9
:020e8b0003adb5
:020e8c0003afb2
:020e8d0003b2ae
:020e8e0003b5aa
:020e8f0003b7a7
:020e900003baa3
:020e910003bd9f
:020e920003bf9c
:020e930003c298
:020e940003c594
:020e950003c791
:020e960003ca8d
:020e970003cd89
:020e980003cf86
:020e990003d282
:020e9a0003d57e
:020e9b0003d77b
:020e9c0003da77
:020e9d0003dd73
:020e9e0003df70
:020e9f0003e26c
:020ea00003e568
:020ea10003e864
:020ea20003ea61
:020ea30003ed5d
:020ea40003f059
:020ea50003f256
:020ea60003f552
:020ea70003f84e
:020ea80003fa4b
:020ea90003fd47
:020eaa00040042
:020eab0004033e
:020eac0004053b
:020ead00040837
:020eae00040b33
:020eaf00040e2f
:020eb00004102c
:020eb100041328
:020eb200041624
:020eb300041920
:020eb400041b1d
:020eb500041e19
:020eb600042115
:020eb700042411
:020eb80004260e
:020eb90004290a
:020eba00042c06
:020ebb00042f02
:020ebc000431ff
:020ebd000434fb
:020ebe000437f7
:020ebf00043af3
:020ec000043cf0
:020ec100043fec
:020ec2000442e8
:020ec3000445e4
:020ec4000447e1
:020ec500044add
:020ec600044dd9
:020ec7000450d5
:020ec8000453d1
:020ec9000455ce
:020eca000458ca
:020ecb00045bc6
:020ecc00045ec2
:020ecd000461be
:020ece000463bb
:020ecf000466b7
:020ed0000469b3
:020ed100046caf
:020ed200046fab
:020ed3000471a8
:020ed4000474a4
:020ed5000477a0
:020ed600047a9c
:020ed700047d98
:020ed800048094
:020ed900048291
:020eda0004858d
:020edb00048889
:020edc00048b85
:020edd00048e81
:020ede0004917d
:020edf0004937a
:020ee000049676
:020ee100049972
:020ee200049c6e
:020ee300049f6a
:020ee40004a266
:020ee50004a463
:020ee60004a75f
:020ee70004aa5b
:020ee80004ad57
:020ee90004b053
:020eea0004b34f
:020eeb0004b64b
:020eec0004b848
:020eed0004bb44
:020eee0004be40
:020eef0004c13c
:020ef00004c438
:020ef10004c734
:020ef20004ca30
:020ef30004cd2c
:020ef40004cf29
:020ef50004d225
:020ef60004d521
:020ef70004d81d
:020ef80004db19
:020ef90004de15
:020efa0004e111
:020efb0004e40d
:020efc0004e709
:020efd0004e906
:020efe0004ec02
:020eff0004effe
:020f000004f2f9
:020f010004f5f5
:020f020004f8f1
:020f030004fbed
:020f040004fee9
:020f05000501e4
:020f06000504e0
:020f07000507dc
:020f08000509d9
:020f0900050cd5
:020f0a00050fd1
:020f0b000512cd
:020f0c000515c9
:020f0d000518c5
:020f0e00051bc1
:020f0f00051ebd
:020f10000521b9
:020f11000524b5
:020f12000527b1
:020f1300052aad
:020f1400052da9
:020f15000530a5
:020f16000533a1
:020f170005359e
:020f180005389a
:020f1900053b96
:020f1a00053e92
:020f1b0005418e
:020f1c0005448a
:020f1d00054786
:020f1e00054a82
:020f1f00054d7e
:020f200005507a
:020f2100055376
:020f2200055672
:020f230005596e
:020f2400055c6a
:020f2500055f66
:020f2600056262
:020f270005655e
:020f280005685a
:020f2900056b56
:020f2a00056e52
:020f2b0005714e
:020f2c0005744a
:020f2d00057746
:020f2e00057a42
:020f2f00057d3e
:020f300005803a
:020f3100058336
:020f3200058632
:020f330005892e
:020f3400058c2a
:020f3500058f26
:020f3600059222
:020f370005941f
:020f380005971b
:020f3900059a17
:020f3a00059d13
:020f3b0005a00f
:020f3c0005a30b
:020f3d0005a607
:020f3e0005a903
:020f3f0005adfe
:020f400005b0fa
:020f410005b3f6
:020f420005b6f2
:020f430005b9ee
:020f440005bcea
:020f450005bfe6
:020f460005c2e2
:020f470005c5de
:020f480005c8da
:020f490005cbd6
:020f4a0005ced2
:020f4b0005d1ce
:020f4c0005d4ca
:020f4d0005d7c6
:020f4e0005dac2
:020f4f0005ddbe
:020f500005e0ba
:020f510005e3b6
:020f520005e6b2
:020f530005e9ae
:020f540005ecaa
:020f550005efa6
:020f560005f2a2
:020f570005f59e
:020f580005f89a
:020f590005fb96
:020f5a0005fe92
:020f5b0006018d
:020f5c00060489
:020f5d00060785
:020f5e00060a81
:020f5f00060d7d
:020f6000061079
:020f6100061375
:020f6200061770
:020f6300061a6c
:020f6400061d68
:020f6500062064
:020f6600062360
:020f670006265c
:020f6800062958
:020f6900062c54
:020f6a00062f50
:020f6b0006324c
:020f6c00063548
:020f6d00063844
:020f6e00063b40
:020f6f00063e3c
:020f7000064138
:020f7100064434
:020f7200064730
:020f7300064b2b
:020f7400064e27
:020f7500065123
:020f760006541f
:020f770006571b
:020f7800065a17
:020f7900065d13
:020f7a0006600f
:020f7b0006630b
:020f7c00066607
:020f7d00066903
:020f7e00066cff
:020f7f00066ffb
:020f80000673f6
:020f81000676f2
:020f82000679ee
:020f8300067cea
:020f8400067fe6
:020f85000682e2
:020f86000685de
:020f87000688da
:020f8800068bd6
:020f8900068ed2
:020f8a000691ce
:020f8b000694ca
:020f8c000698c5
:020f8d00069bc1
:020f8e00069ebd
:020f8f0006a1b9
:020f900006a4b5
:020f910006a7b1
:020f920006aaad
:020f930006ada9
:020f940006b0a5
:020f950006b3a1
:020f960006b79c
:020f970006ba98
:020f980006bd94
:020f990006c090
:020f9a0006c38c
:020f9b0006c688
:020f9c0006c984
:020f9d0006cc80
:020f9e0006cf7c
:020f9f0006d278
